{
  "_format": "hh-sol-artifact-1",
  "contractName": "NFTminter",
  "sourceName": "contracts/NFTminter.sol",
  "abi": [
    {
      "inputs": [],
      "stateMutability": "nonpayable",
      "type": "constructor"
    },
    {
      "anonymous": false,
      "inputs": [
        {
          "indexed": true,
          "internalType": "address",
          "name": "owner",
          "type": "address"
        },
        {
          "indexed": true,
          "internalType": "address",
          "name": "approved",
          "type": "address"
        },
        {
          "indexed": true,
          "internalType": "uint256",
          "name": "tokenId",
          "type": "uint256"
        }
      ],
      "name": "Approval",
      "type": "event"
    },
    {
      "anonymous": false,
      "inputs": [
        {
          "indexed": true,
          "internalType": "address",
          "name": "owner",
          "type": "address"
        },
        {
          "indexed": true,
          "internalType": "address",
          "name": "operator",
          "type": "address"
        },
        {
          "indexed": false,
          "internalType": "bool",
          "name": "approved",
          "type": "bool"
        }
      ],
      "name": "ApprovalForAll",
      "type": "event"
    },
    {
      "anonymous": false,
      "inputs": [
        {
          "indexed": true,
          "internalType": "address",
          "name": "from",
          "type": "address"
        },
        {
          "indexed": true,
          "internalType": "address",
          "name": "to",
          "type": "address"
        },
        {
          "indexed": true,
          "internalType": "uint256",
          "name": "tokenId",
          "type": "uint256"
        }
      ],
      "name": "Transfer",
      "type": "event"
    },
    {
      "inputs": [
        {
          "internalType": "address",
          "name": "to",
          "type": "address"
        },
        {
          "internalType": "uint256",
          "name": "tokenId",
          "type": "uint256"
        }
      ],
      "name": "approve",
      "outputs": [],
      "stateMutability": "nonpayable",
      "type": "function"
    },
    {
      "inputs": [
        {
          "internalType": "address",
          "name": "owner",
          "type": "address"
        }
      ],
      "name": "balanceOf",
      "outputs": [
        {
          "internalType": "uint256",
          "name": "",
          "type": "uint256"
        }
      ],
      "stateMutability": "view",
      "type": "function"
    },
    {
      "inputs": [
        {
          "internalType": "uint256",
          "name": "tokenId",
          "type": "uint256"
        }
      ],
      "name": "getApproved",
      "outputs": [
        {
          "internalType": "address",
          "name": "",
          "type": "address"
        }
      ],
      "stateMutability": "view",
      "type": "function"
    },
    {
      "inputs": [
        {
          "internalType": "address",
          "name": "owner",
          "type": "address"
        },
        {
          "internalType": "address",
          "name": "operator",
          "type": "address"
        }
      ],
      "name": "isApprovedForAll",
      "outputs": [
        {
          "internalType": "bool",
          "name": "",
          "type": "bool"
        }
      ],
      "stateMutability": "view",
      "type": "function"
    },
    {
      "inputs": [],
      "name": "name",
      "outputs": [
        {
          "internalType": "string",
          "name": "",
          "type": "string"
        }
      ],
      "stateMutability": "view",
      "type": "function"
    },
    {
      "inputs": [
        {
          "internalType": "uint256",
          "name": "tokenId",
          "type": "uint256"
        }
      ],
      "name": "ownerOf",
      "outputs": [
        {
          "internalType": "address",
          "name": "",
          "type": "address"
        }
      ],
      "stateMutability": "view",
      "type": "function"
    },
    {
      "inputs": [
        {
          "internalType": "address",
          "name": "to",
          "type": "address"
        },
        {
          "internalType": "string",
          "name": "metadataURI",
          "type": "string"
        }
      ],
      "name": "safeMint",
      "outputs": [
        {
          "internalType": "uint256",
          "name": "",
          "type": "uint256"
        }
      ],
      "stateMutability": "nonpayable",
      "type": "function"
    },
    {
      "inputs": [
        {
          "internalType": "address",
          "name": "from",
          "type": "address"
        },
        {
          "internalType": "address",
          "name": "to",
          "type": "address"
        },
        {
          "internalType": "uint256",
          "name": "tokenId",
          "type": "uint256"
        }
      ],
      "name": "safeTransferFrom",
      "outputs": [],
      "stateMutability": "nonpayable",
      "type": "function"
    },
    {
      "inputs": [
        {
          "internalType": "address",
          "name": "from",
          "type": "address"
        },
        {
          "internalType": "address",
          "name": "to",
          "type": "address"
        },
        {
          "internalType": "uint256",
          "name": "tokenId",
          "type": "uint256"
        },
        {
          "internalType": "bytes",
          "name": "_data",
          "type": "bytes"
        }
      ],
      "name": "safeTransferFrom",
      "outputs": [],
      "stateMutability": "nonpayable",
      "type": "function"
    },
    {
      "inputs": [
        {
          "internalType": "address",
          "name": "operator",
          "type": "address"
        },
        {
          "internalType": "bool",
          "name": "approved",
          "type": "bool"
        }
      ],
      "name": "setApprovalForAll",
      "outputs": [],
      "stateMutability": "nonpayable",
      "type": "function"
    },
    {
      "inputs": [
        {
          "internalType": "bytes4",
          "name": "interfaceId",
          "type": "bytes4"
        }
      ],
      "name": "supportsInterface",
      "outputs": [
        {
          "internalType": "bool",
          "name": "",
          "type": "bool"
        }
      ],
      "stateMutability": "view",
      "type": "function"
    },
    {
      "inputs": [],
      "name": "symbol",
      "outputs": [
        {
          "internalType": "string",
          "name": "",
          "type": "string"
        }
      ],
      "stateMutability": "view",
      "type": "function"
    },
    {
      "inputs": [
        {
          "internalType": "uint256",
          "name": "tokenId",
          "type": "uint256"
        }
      ],
      "name": "tokenURI",
      "outputs": [
        {
          "internalType": "string",
          "name": "",
          "type": "string"
        }
      ],
      "stateMutability": "view",
      "type": "function"
    },
    {
      "inputs": [
        {
          "internalType": "address",
          "name": "from",
          "type": "address"
        },
        {
          "internalType": "address",
          "name": "to",
          "type": "address"
        },
        {
          "internalType": "uint256",
          "name": "tokenId",
          "type": "uint256"
        }
      ],
      "name": "transferFrom",
      "outputs": [],
      "stateMutability": "nonpayable",
      "type": "function"
    }
  ],
  "bytecode": "0x60806040523480156200001157600080fd5b506040518060400160405280600b81526020017f506f7374636172644e46540000000000000000000000000000000000000000008152506040518060400160405280600381526020017f5063540000000000000000000000000000000000000000000000000000000000815250816000908051906020019062000096929190620000b8565b508060019080519060200190620000af929190620000b8565b505050620001cd565b828054620000c69062000168565b90600052602060002090601f016020900481019282620000ea576000855562000136565b82601f106200010557805160ff191683800117855562000136565b8280016001018555821562000136579182015b828111156200013557825182559160200191906001019062000118565b5b50905062000145919062000149565b5090565b5b80821115620001645760008160009055506001016200014a565b5090565b600060028204905060018216806200018157607f821691505b602082108114156200019857620001976200019e565b5b50919050565b7f4e487b7100000000000000000000000000000000000000000000000000000000600052602260045260246000fd5b612b0a80620001dd6000396000f3fe608060405234801561001057600080fd5b50600436106100ea5760003560e01c806370a082311161008c578063b88d4fde11610066578063b88d4fde1461025b578063c87b56dd14610277578063d204c45e146102a7578063e985e9c5146102d7576100ea565b806370a08231146101f157806395d89b4114610221578063a22cb4651461023f576100ea565b8063095ea7b3116100c8578063095ea7b31461016d57806323b872dd1461018957806342842e0e146101a55780636352211e146101c1576100ea565b806301ffc9a7146100ef57806306fdde031461011f578063081812fc1461013d575b600080fd5b61010960048036038101906101049190611bc6565b610307565b6040516101169190611fe3565b60405180910390f35b6101276103e9565b6040516101349190611ffe565b60405180910390f35b61015760048036038101906101529190611c18565b61047b565b6040516101649190611f7c565b60405180910390f35b61018760048036038101906101829190611b8a565b610500565b005b6101a3600480360381019061019e9190611a30565b610618565b005b6101bf60048036038101906101ba9190611a30565b610678565b005b6101db60048036038101906101d69190611c18565b610698565b6040516101e89190611f7c565b60405180910390f35b61020b600480360381019061020691906119cb565b61074a565b6040516102189190612220565b60405180910390f35b610229610802565b6040516102369190611ffe565b60405180910390f35b61025960048036038101906102549190611afa565b610894565b005b61027560048036038101906102709190611a7f565b610a15565b005b610291600480360381019061028c9190611c18565b610a77565b60405161029e9190611ffe565b60405180910390f35b6102c160048036038101906102bc9190611b36565b610b1e565b6040516102ce9190612220565b60405180910390f35b6102f160048036038101906102ec91906119f4565b610bdc565b6040516102fe9190611fe3565b60405180910390f35b60007f80ac58cd000000000000000000000000000000000000000000000000000000007bffffffffffffffffffffffffffffffffffffffffffffffffffffffff1916827bffffffffffffffffffffffffffffffffffffffffffffffffffffffff191614806103d257507f5b5e139f000000000000000000000000000000000000000000000000000000007bffffffffffffffffffffffffffffffffffffffffffffffffffffffff1916827bffffffffffffffffffffffffffffffffffffffffffffffffffffffff1916145b806103e257506103e182610c70565b5b9050919050565b6060600080546103f890612476565b80601f016020809104026020016040519081016040528092919081815260200182805461042490612476565b80156104715780601f1061044657610100808354040283529160200191610471565b820191906000526020600020905b81548152906001019060200180831161045457829003601f168201915b5050505050905090565b600061048682610cda565b6104c5576040517f08c379a00000000000000000000000000000000000000000000000000000000081526004016104bc90612180565b60405180910390fd5b6004600083815260200190815260200160002060009054906101000a900473ffffffffffffffffffffffffffffffffffffffff169050919050565b600061050b82610698565b90508073ffffffffffffffffffffffffffffffffffffffff168373ffffffffffffffffffffffffffffffffffffffff16141561057c576040517f08c379a0000000000000000000000000000000000000000000000000000000008152600401610573906121e0565b60405180910390fd5b8073ffffffffffffffffffffffffffffffffffffffff1661059b610d46565b73ffffffffffffffffffffffffffffffffffffffff1614806105ca57506105c9816105c4610d46565b610bdc565b5b610609576040517f08c379a0000000000000000000000000000000000000000000000000000000008152600401610600906120e0565b60405180910390fd5b6106138383610d4e565b505050565b610629610623610d46565b82610e07565b610668576040517f08c379a000000000000000000000000000000000000000000000000000000000815260040161065f90612200565b60405180910390fd5b610673838383610ee5565b505050565b61069383838360405180602001604052806000815250610a15565b505050565b6000806002600084815260200190815260200160002060009054906101000a900473ffffffffffffffffffffffffffffffffffffffff169050600073ffffffffffffffffffffffffffffffffffffffff168173ffffffffffffffffffffffffffffffffffffffff161415610741576040517f08c379a000000000000000000000000000000000000000000000000000000000815260040161073890612120565b60405180910390fd5b80915050919050565b60008073ffffffffffffffffffffffffffffffffffffffff168273ffffffffffffffffffffffffffffffffffffffff1614156107bb576040517f08c379a00000000000000000000000000000000000000000000000000000000081526004016107b290612100565b60405180910390fd5b600360008373ffffffffffffffffffffffffffffffffffffffff1673ffffffffffffffffffffffffffffffffffffffff168152602001908152602001600020549050919050565b60606001805461081190612476565b80601f016020809104026020016040519081016040528092919081815260200182805461083d90612476565b801561088a5780601f1061085f5761010080835404028352916020019161088a565b820191906000526020600020905b81548152906001019060200180831161086d57829003601f168201915b5050505050905090565b61089c610d46565b73ffffffffffffffffffffffffffffffffffffffff168273ffffffffffffffffffffffffffffffffffffffff16141561090a576040517f08c379a0000000000000000000000000000000000000000000000000000000008152600401610901906120a0565b60405180910390fd5b8060056000610917610d46565b73ffffffffffffffffffffffffffffffffffffffff1673ffffffffffffffffffffffffffffffffffffffff16815260200190815260200160002060008473ffffffffffffffffffffffffffffffffffffffff1673ffffffffffffffffffffffffffffffffffffffff16815260200190815260200160002060006101000a81548160ff0219169083151502179055508173ffffffffffffffffffffffffffffffffffffffff166109c4610d46565b73ffffffffffffffffffffffffffffffffffffffff167f17307eab39ab6107e8899845ad3d59bd9653f200f220920489ca2b5937696c3183604051610a099190611fe3565b60405180910390a35050565b610a26610a20610d46565b83610e07565b610a65576040517f08c379a0000000000000000000000000000000000000000000000000000000008152600401610a5c90612200565b60405180910390fd5b610a7184848484611141565b50505050565b6060610a8282610cda565b610ac1576040517f08c379a0000000000000000000000000000000000000000000000000000000008152600401610ab8906121c0565b60405180910390fd5b6000610acb61119d565b90506000815111610aeb5760405180602001604052806000815250610b16565b80610af5846111b4565b604051602001610b06929190611f58565b6040516020818303038152906040525b915050919050565b60006001600883604051610b329190611f41565b9081526020016040518091039020541415610b82576040517f08c379a0000000000000000000000000000000000000000000000000000000008152600401610b7990612040565b60405180910390fd5b6001600883604051610b949190611f41565b9081526020016040518091039020819055506000610bb26006611361565b9050610bbe600661136f565b610bc88482611385565b610bd281846113a3565b8091505092915050565b6000600560008473ffffffffffffffffffffffffffffffffffffffff1673ffffffffffffffffffffffffffffffffffffffff16815260200190815260200160002060008373ffffffffffffffffffffffffffffffffffffffff1673ffffffffffffffffffffffffffffffffffffffff16815260200190815260200160002060009054906101000a900460ff16905092915050565b60007f01ffc9a7000000000000000000000000000000000000000000000000000000007bffffffffffffffffffffffffffffffffffffffffffffffffffffffff1916827bffffffffffffffffffffffffffffffffffffffffffffffffffffffff1916149050919050565b60008073ffffffffffffffffffffffffffffffffffffffff166002600084815260200190815260200160002060009054906101000a900473ffffffffffffffffffffffffffffffffffffffff1673ffffffffffffffffffffffffffffffffffffffff1614159050919050565b600033905090565b816004600083815260200190815260200160002060006101000a81548173ffffffffffffffffffffffffffffffffffffffff021916908373ffffffffffffffffffffffffffffffffffffffff160217905550808273ffffffffffffffffffffffffffffffffffffffff16610dc183610698565b73ffffffffffffffffffffffffffffffffffffffff167f8c5be1e5ebec7d5bd14f71427d1e84f3dd0314c0f7b2291e5b200ac8c7c3b92560405160405180910390a45050565b6000610e1282610cda565b610e51576040517f08c379a0000000000000000000000000000000000000000000000000000000008152600401610e48906120c0565b60405180910390fd5b6000610e5c83610698565b90508073ffffffffffffffffffffffffffffffffffffffff168473ffffffffffffffffffffffffffffffffffffffff161480610ecb57508373ffffffffffffffffffffffffffffffffffffffff16610eb38461047b565b73ffffffffffffffffffffffffffffffffffffffff16145b80610edc5750610edb8185610bdc565b5b91505092915050565b8273ffffffffffffffffffffffffffffffffffffffff16610f0582610698565b73ffffffffffffffffffffffffffffffffffffffff1614610f5b576040517f08c379a0000000000000000000000000000000000000000000000000000000008152600401610f52906121a0565b60405180910390fd5b600073ffffffffffffffffffffffffffffffffffffffff168273ffffffffffffffffffffffffffffffffffffffff161415610fcb576040517f08c379a0000000000000000000000000000000000000000000000000000000008152600401610fc290612080565b60405180910390fd5b610fd6838383611417565b610fe1600082610d4e565b6001600360008573ffffffffffffffffffffffffffffffffffffffff1673ffffffffffffffffffffffffffffffffffffffff1681526020019081526020016000206000828254611031919061238c565b925050819055506001600360008473ffffffffffffffffffffffffffffffffffffffff1673ffffffffffffffffffffffffffffffffffffffff16815260200190815260200160002060008282546110889190612305565b92505081905550816002600083815260200190815260200160002060006101000a81548173ffffffffffffffffffffffffffffffffffffffff021916908373ffffffffffffffffffffffffffffffffffffffff160217905550808273ffffffffffffffffffffffffffffffffffffffff168473ffffffffffffffffffffffffffffffffffffffff167fddf252ad1be2c89b69c2b068fc378daa952ba7f163c4a11628f55a4df523b3ef60405160405180910390a4505050565b61114c848484610ee5565b6111588484848461141c565b611197576040517f08c379a000000000000000000000000000000000000000000000000000000000815260040161118e90612020565b60405180910390fd5b50505050565b606060405180602001604052806000815250905090565b606060008214156111fc576040518060400160405280600181526020017f3000000000000000000000000000000000000000000000000000000000000000815250905061135c565b600082905060005b6000821461122e578080611217906124d9565b915050600a82611227919061235b565b9150611204565b60008167ffffffffffffffff811115611270577f4e487b7100000000000000000000000000000000000000000000000000000000600052604160045260246000fd5b6040519080825280601f01601f1916602001820160405280156112a25781602001600182028036833780820191505090505b5090505b60008514611355576001826112bb919061238c565b9150600a856112ca9190612522565b60306112d69190612305565b60f81b818381518110611312577f4e487b7100000000000000000000000000000000000000000000000000000000600052603260045260246000fd5b60200101907effffffffffffffffffffffffffffffffffffffffffffffffffffffffffffff1916908160001a905350600a8561134e919061235b565b94506112a6565b8093505050505b919050565b600081600001549050919050565b6001816000016000828254019250508190555050565b61139f8282604051806020016040528060008152506115b3565b5050565b6113ac82610cda565b6113eb576040517f08c379a00000000000000000000000000000000000000000000000000000000081526004016113e290612140565b60405180910390fd5b806007600084815260200190815260200160002090805190602001906114129291906117ef565b505050565b505050565b600061143d8473ffffffffffffffffffffffffffffffffffffffff1661160e565b156115a6578373ffffffffffffffffffffffffffffffffffffffff1663150b7a02611466610d46565b8786866040518563ffffffff1660e01b81526004016114889493929190611f97565b602060405180830381600087803b1580156114a257600080fd5b505af19250505080156114d357506040513d601f19601f820116820180604052508101906114d09190611bef565b60015b611556573d8060008114611503576040519150601f19603f3d011682016040523d82523d6000602084013e611508565b606091505b5060008151141561154e576040517f08c379a000000000000000000000000000000000000000000000000000000000815260040161154590612020565b60405180910390fd5b805181602001fd5b63150b7a0260e01b7bffffffffffffffffffffffffffffffffffffffffffffffffffffffff1916817bffffffffffffffffffffffffffffffffffffffffffffffffffffffff1916149150506115ab565b600190505b949350505050565b6115bd8383611621565b6115ca600084848461141c565b611609576040517f08c379a000000000000000000000000000000000000000000000000000000000815260040161160090612020565b60405180910390fd5b505050565b600080823b905060008111915050919050565b600073ffffffffffffffffffffffffffffffffffffffff168273ffffffffffffffffffffffffffffffffffffffff161415611691576040517f08c379a000000000000000000000000000000000000000000000000000000000815260040161168890612160565b60405180910390fd5b61169a81610cda565b156116da576040517f08c379a00000000000000000000000000000000000000000000000000000000081526004016116d190612060565b60405180910390fd5b6116e660008383611417565b6001600360008473ffffffffffffffffffffffffffffffffffffffff1673ffffffffffffffffffffffffffffffffffffffff16815260200190815260200160002060008282546117369190612305565b92505081905550816002600083815260200190815260200160002060006101000a81548173ffffffffffffffffffffffffffffffffffffffff021916908373ffffffffffffffffffffffffffffffffffffffff160217905550808273ffffffffffffffffffffffffffffffffffffffff16600073ffffffffffffffffffffffffffffffffffffffff167fddf252ad1be2c89b69c2b068fc378daa952ba7f163c4a11628f55a4df523b3ef60405160405180910390a45050565b8280546117fb90612476565b90600052602060002090601f01602090048101928261181d5760008555611864565b82601f1061183657805160ff1916838001178555611864565b82800160010185558215611864579182015b82811115611863578251825591602001919060010190611848565b5b5090506118719190611875565b5090565b5b8082111561188e576000816000905550600101611876565b5090565b60006118a56118a084612260565b61223b565b9050828152602081018484840111156118bd57600080fd5b6118c8848285612434565b509392505050565b60006118e36118de84612291565b61223b565b9050828152602081018484840111156118fb57600080fd5b611906848285612434565b509392505050565b60008135905061191d81612a78565b92915050565b60008135905061193281612a8f565b92915050565b60008135905061194781612aa6565b92915050565b60008151905061195c81612aa6565b92915050565b600082601f83011261197357600080fd5b8135611983848260208601611892565b91505092915050565b600082601f83011261199d57600080fd5b81356119ad8482602086016118d0565b91505092915050565b6000813590506119c581612abd565b92915050565b6000602082840312156119dd57600080fd5b60006119eb8482850161190e565b91505092915050565b60008060408385031215611a0757600080fd5b6000611a158582860161190e565b9250506020611a268582860161190e565b9150509250929050565b600080600060608486031215611a4557600080fd5b6000611a538682870161190e565b9350506020611a648682870161190e565b9250506040611a75868287016119b6565b9150509250925092565b60008060008060808587031215611a9557600080fd5b6000611aa38782880161190e565b9450506020611ab48782880161190e565b9350506040611ac5878288016119b6565b925050606085013567ffffffffffffffff811115611ae257600080fd5b611aee87828801611962565b91505092959194509250565b60008060408385031215611b0d57600080fd5b6000611b1b8582860161190e565b9250506020611b2c85828601611923565b9150509250929050565b60008060408385031215611b4957600080fd5b6000611b578582860161190e565b925050602083013567ffffffffffffffff811115611b7457600080fd5b611b808582860161198c565b9150509250929050565b60008060408385031215611b9d57600080fd5b6000611bab8582860161190e565b9250506020611bbc858286016119b6565b9150509250929050565b600060208284031215611bd857600080fd5b6000611be684828501611938565b91505092915050565b600060208284031215611c0157600080fd5b6000611c0f8482850161194d565b91505092915050565b600060208284031215611c2a57600080fd5b6000611c38848285016119b6565b91505092915050565b611c4a816123c0565b82525050565b611c59816123d2565b82525050565b6000611c6a826122c2565b611c7481856122d8565b9350611c84818560208601612443565b611c8d8161260f565b840191505092915050565b6000611ca3826122cd565b611cad81856122e9565b9350611cbd818560208601612443565b611cc68161260f565b840191505092915050565b6000611cdc826122cd565b611ce681856122fa565b9350611cf6818560208601612443565b80840191505092915050565b6000611d0f6032836122e9565b9150611d1a82612620565b604082019050919050565b6000611d326020836122e9565b9150611d3d8261266f565b602082019050919050565b6000611d55601c836122e9565b9150611d6082612698565b602082019050919050565b6000611d786024836122e9565b9150611d83826126c1565b604082019050919050565b6000611d9b6019836122e9565b9150611da682612710565b602082019050919050565b6000611dbe602c836122e9565b9150611dc982612739565b604082019050919050565b6000611de16038836122e9565b9150611dec82612788565b604082019050919050565b6000611e04602a836122e9565b9150611e0f826127d7565b604082019050919050565b6000611e276029836122e9565b9150611e3282612826565b604082019050919050565b6000611e4a602e836122e9565b9150611e5582612875565b604082019050919050565b6000611e6d6020836122e9565b9150611e78826128c4565b602082019050919050565b6000611e90602c836122e9565b9150611e9b826128ed565b604082019050919050565b6000611eb36029836122e9565b9150611ebe8261293c565b604082019050919050565b6000611ed6602f836122e9565b9150611ee18261298b565b604082019050919050565b6000611ef96021836122e9565b9150611f04826129da565b604082019050919050565b6000611f1c6031836122e9565b9150611f2782612a29565b604082019050919050565b611f3b8161242a565b82525050565b6000611f4d8284611cd1565b915081905092915050565b6000611f648285611cd1565b9150611f708284611cd1565b91508190509392505050565b6000602082019050611f916000830184611c41565b92915050565b6000608082019050611fac6000830187611c41565b611fb96020830186611c41565b611fc66040830185611f32565b8181036060830152611fd88184611c5f565b905095945050505050565b6000602082019050611ff86000830184611c50565b92915050565b600060208201905081810360008301526120188184611c98565b905092915050565b6000602082019050818103600083015261203981611d02565b9050919050565b6000602082019050818103600083015261205981611d25565b9050919050565b6000602082019050818103600083015261207981611d48565b9050919050565b6000602082019050818103600083015261209981611d6b565b9050919050565b600060208201905081810360008301526120b981611d8e565b9050919050565b600060208201905081810360008301526120d981611db1565b9050919050565b600060208201905081810360008301526120f981611dd4565b9050919050565b6000602082019050818103600083015261211981611df7565b9050919050565b6000602082019050818103600083015261213981611e1a565b9050919050565b6000602082019050818103600083015261215981611e3d565b9050919050565b6000602082019050818103600083015261217981611e60565b9050919050565b6000602082019050818103600083015261219981611e83565b9050919050565b600060208201905081810360008301526121b981611ea6565b9050919050565b600060208201905081810360008301526121d981611ec9565b9050919050565b600060208201905081810360008301526121f981611eec565b9050919050565b6000602082019050818103600083015261221981611f0f565b9050919050565b60006020820190506122356000830184611f32565b92915050565b6000612245612256565b905061225182826124a8565b919050565b6000604051905090565b600067ffffffffffffffff82111561227b5761227a6125e0565b5b6122848261260f565b9050602081019050919050565b600067ffffffffffffffff8211156122ac576122ab6125e0565b5b6122b58261260f565b9050602081019050919050565b600081519050919050565b600081519050919050565b600082825260208201905092915050565b600082825260208201905092915050565b600081905092915050565b60006123108261242a565b915061231b8361242a565b9250827fffffffffffffffffffffffffffffffffffffffffffffffffffffffffffffffff038211156123505761234f612553565b5b828201905092915050565b60006123668261242a565b91506123718361242a565b92508261238157612380612582565b5b828204905092915050565b60006123978261242a565b91506123a28361242a565b9250828210156123b5576123b4612553565b5b828203905092915050565b60006123cb8261240a565b9050919050565b60008115159050919050565b60007fffffffff0000000000000000000000000000000000000000000000000000000082169050919050565b600073ffffffffffffffffffffffffffffffffffffffff82169050919050565b6000819050919050565b82818337600083830152505050565b60005b83811015612461578082015181840152602081019050612446565b83811115612470576000848401525b50505050565b6000600282049050600182168061248e57607f821691505b602082108114156124a2576124a16125b1565b5b50919050565b6124b18261260f565b810181811067ffffffffffffffff821117156124d0576124cf6125e0565b5b80604052505050565b60006124e48261242a565b91507fffffffffffffffffffffffffffffffffffffffffffffffffffffffffffffffff82141561251757612516612553565b5b600182019050919050565b600061252d8261242a565b91506125388361242a565b92508261254857612547612582565b5b828206905092915050565b7f4e487b7100000000000000000000000000000000000000000000000000000000600052601160045260246000fd5b7f4e487b7100000000000000000000000000000000000000000000000000000000600052601260045260246000fd5b7f4e487b7100000000000000000000000000000000000000000000000000000000600052602260045260246000fd5b7f4e487b7100000000000000000000000000000000000000000000000000000000600052604160045260246000fd5b6000601f19601f8301169050919050565b7f4552433732313a207472616e7366657220746f206e6f6e20455243373231526560008201527f63656976657220696d706c656d656e7465720000000000000000000000000000602082015250565b7f54686973206d6574616461746155524920616c7265616479206578697374732e600082015250565b7f4552433732313a20746f6b656e20616c7265616479206d696e74656400000000600082015250565b7f4552433732313a207472616e7366657220746f20746865207a65726f2061646460008201527f7265737300000000000000000000000000000000000000000000000000000000602082015250565b7f4552433732313a20617070726f766520746f2063616c6c657200000000000000600082015250565b7f4552433732313a206f70657261746f7220717565727920666f72206e6f6e657860008201527f697374656e7420746f6b656e0000000000000000000000000000000000000000602082015250565b7f4552433732313a20617070726f76652063616c6c6572206973206e6f74206f7760008201527f6e6572206e6f7220617070726f76656420666f7220616c6c0000000000000000602082015250565b7f4552433732313a2062616c616e636520717565727920666f7220746865207a6560008201527f726f206164647265737300000000000000000000000000000000000000000000602082015250565b7f4552433732313a206f776e657220717565727920666f72206e6f6e657869737460008201527f656e7420746f6b656e0000000000000000000000000000000000000000000000602082015250565b7f45524337323155524953746f726167653a2055524920736574206f66206e6f6e60008201527f6578697374656e7420746f6b656e000000000000000000000000000000000000602082015250565b7f4552433732313a206d696e7420746f20746865207a65726f2061646472657373600082015250565b7f4552433732313a20617070726f76656420717565727920666f72206e6f6e657860008201527f697374656e7420746f6b656e0000000000000000000000000000000000000000602082015250565b7f4552433732313a207472616e73666572206f6620746f6b656e2074686174206960008201527f73206e6f74206f776e0000000000000000000000000000000000000000000000602082015250565b7f4552433732314d657461646174613a2055524920717565727920666f72206e6f60008201527f6e6578697374656e7420746f6b656e0000000000000000000000000000000000602082015250565b7f4552433732313a20617070726f76616c20746f2063757272656e74206f776e6560008201527f7200000000000000000000000000000000000000000000000000000000000000602082015250565b7f4552433732313a207472616e736665722063616c6c6572206973206e6f74206f60008201527f776e6572206e6f7220617070726f766564000000000000000000000000000000602082015250565b612a81816123c0565b8114612a8c57600080fd5b50565b612a98816123d2565b8114612aa357600080fd5b50565b612aaf816123de565b8114612aba57600080fd5b50565b612ac68161242a565b8114612ad157600080fd5b5056fea26469706673582212206f79b9c19b088283701b0ce1cacedff71f61810c1e66d753a762aba43b74a80264736f6c63430008040033",
  "linkReferences": {},
  "deployedLinkReferences": {}
}